:100000000C942A000C9447000C9447000C94470071
:100010000C9447000C9447000C9447000C94470044
:100020000C9447000C9447000C9447000C94470034
:100030000C9447000C9447000C9447000C94470024
:100040000C9447000C9447000C9447000C94470014
:100050000C94470011241FBECFE5D8E0DEBFCDBF12
:1000600010E0A0E6B0E0EAE3FCE002C005900D92EB
:10007000AC3CB107D9F710E0ACECB0E001C01D9288
:10008000A23DB107E1F70E9416060C941B060C94E2
:1000900000000E94A7020E94EA01089584E290E015
:1000A0000E9411068F3F09F042C00E94320381E096
:1000B00060E00E943C0380E690E00E9423031092DF
:1000C000D1000E9427028093BB008F3FD1F3609143
:1000D000D100665F81E00E943C038091BB000E94DA
:1000E00011038FEF94E3ACE081509040A040E1F722
:1000F00000C000006091D100665F81E00E943C0377
:100100008AE20E9411038091D10090E08096609174
:10011000BB000E9409068091D1008F5F8093D100BF
:10012000843078F284E290E064E40E940906089545
:100130002F923F924F925F926F927F928F929F92F7
:10014000AF92BF92CF92DF92EF92FF920F931F93E5
:10015000CF93DF9300ED10E078010894E108F108F7
:100160000F2EFEEFCF2EFFEFDF2EF02DC00ED11E93
:100170000F2EFDEFAF2EFFEFBF2EF02DA00EB11E04
:100180000F2EFAE68F2EF0E09F2EF02D0F2EFDECB5
:100190006F2EF0E07F2EF02D0F2EF3E94F2EF0E0C2
:1001A0005F2EF02D0F2EFAEA2F2EF0E03F2EF02DCD
:1001B000F4C08FEFD8018C93F7018083D6018C9324
:1001C000F50180830E94320381E060E00E943C03DD
:1001D000C4010E9423031092D100C091D100D0E04D
:1001E0000E942702FE01E353FF4F80838091D100DC
:1001F00090E083539F4FDC018C918F3F71F30E94FD
:1002000011038FEF94E3ACE081509040A040E1F700
:1002100000C000006091D100645F81E00E943C0357
:100220008AE20E9411038091D1008F5F8093D100F8
:10023000843098F280E290E00E941106D3019C91F4
:10024000891709F044C081E290E00E941106EEECAB
:10025000F0E090818917D9F582E290E00E941106C2
:10026000AFECB0E09C91891791F583E290E00E9499
:100270001106F8019081891751F50E94320381E03F
:1002800060E00E943C0386E790E00E9423038FEF2A
:1002900099E6A8E181509040A040E1F700C000003D
:1002A0000E94320381E060E00E943C0383E890E01A
:1002B0000E9423038FEF99E6A8E181509040A0406F
:1002C000E1F700C0000081E08093CC0066C080911F
:1002D000BA0081508093BA008823C1F10E94320392
:1002E00081E060E00E943C03C2010E9423038FEF83
:1002F00094E3ACE081509040A040E1F700C00000E2
:100300000E94320381E060E00E943C038EE990E0AD
:100310000E9423038FEF94E3ACE081509040A04013
:10032000E1F700C0000081E06CE00E943C03809196
:10033000BA00805D0E9411038FEF94E3ACE081501E
:100340009040A040E1F700C0000027C00E943203A7
:1003500081E060E00E943C03C2010E9423038FEF12
:1003600094E3ACE081509040A040E1F700C0000071
:100370000E94320381E060E00E943C03C1010E94C0
:1003800023038FEF94E3ACE081509040A040E1F76D
:1003900000C0000081E08093CC008091CC008823D5
:1003A00009F407CFDF91CF911F910F91FF90EF904C
:1003B000DF90CF90BF90AF909F908F907F906F9085
:1003C0005F904F903F902F9008950E944E000E94A2
:1003D0009800089584E460E041E00E945D0384E4B5
:1003E00061E041E00E945D0384E462E041E00E943C
:1003F0005D0384E463E041E00E945D0384E464E023
:1004000040E00E945D0384E465E040E00E945D03FB
:1004100084E466E040E00E945D0384E467E040E03D
:100420000E945D0384E464E041E00E94390584E4B5
:1004300065E041E00E94390584E466E041E00E9405
:10044000390584E467E041E00E94390508950F937F
:100450001F93CF93DF93CDB7DEB760970FB6F894B5
:10046000DEBF0FBECDBFDE011196ECEBF0E080E108
:1004700001900D928150E1F700E084E460E041E0FA
:100480000E94E00384E461E041E00E94E00384E430
:1004900062E041E00E94E00384E463E041E00E9406
:1004A000E00384E4602F40E00E94E00310E0612F4D
:1004B0006C5F84E40E946304882361F4E02FF0E021
:1004C000EE0FFF1FEE0FFF1FE10FF11DEC0FFD1FE1
:1004D000818104C01F5F143051F70BC060960FB6C6
:1004E000F894DEBF0FBECDBFDF91CF911F910F916A
:1004F00008950F5F043009F68FEFF0CF82E460E0DB
:1005000041E00E94E0038FE99FE00197F1F700C00E
:10051000000082E460E040E00E94E0038FE99FE099
:100520000197F1F700C000000895682F81E40E9450
:100530000F0582E461E040E00E94E0030E947E0239
:100540008FEC97E00197F1F700C0000008958FEF5E
:1005500091EEA4E081509040A040E1F700C000007F
:1005600081E460E041E00E945D0381E461E041E0FC
:100570000E945D0381E462E041E00E945D0381E44A
:1005800063E041E00E945D0381E464E041E00E9499
:100590005D0381E465E041E00E945D0381E466E083
:1005A00041E00E945D0381E467E041E00E945D0359
:1005B00082E460E041E00E945D0382E462E041E0A9
:1005C0000E945D0382E461E041E00E945D0382E4F9
:1005D00062E040E00E94E00388E30E949502AFECF5
:1005E000B7E01197F1F700C000008EE00E9495027D
:1005F0008FEC97E00197F1F700C0000081E00E94C6
:100600009502AFE1BEE41197F1F700C0000086E06B
:100610000E9495028FEC97E00197F1F700C000006F
:100620000895682F81E40E940F0582E461E041E0B3
:100630000E94E0030E947E028FEC97E00197F1F7A1
:1006400000C000000895CF93DF93EC0188818823D8
:1006500031F021960E94110389918823D9F7DF9107
:10066000CF91089581E00E9495028FE19EE4019769
:10067000F1F700C000000895282F2150223070F4B7
:10068000613170F4662371F0813019F4962F91581E
:100690000AC0823041F4962F915405C090E803C0FF
:1006A00090E801C090E8892F0E9495028FEC97E0B6
:1006B0000197F1F700C000000895823451F18334AE
:1006C00020F4813409F07BC007C0833409F43EC0B4
:1006D000843409F074C057C0413069F42AB381E012
:1006E00090E0AC0102C0440F551F6A95E2F7BA01D1
:1006F000622B6ABB08952AB381E090E0AC0102C08E
:10070000440F551F6A95E2F7BA01609562236ABBF0
:100710000895413069F427B381E090E0AC0102C054
:10072000440F551F6A95E2F7BA01622B67BB089523
:1007300027B381E090E0AC0102C0440F551F6A95D9
:10074000E2F7BA016095622367BB0895413069F40E
:1007500024B381E090E0AC0102C0440F551F6A95BC
:10076000E2F7BA01622B64BB089524B381E090E004
:10077000AC0102C0440F551F6A95E2F7BA016095BB
:10078000622364BB0895413069F421B381E090E0B5
:10079000AC0102C0440F551F6A95E2F7BA01622B03
:1007A00061BB089521B381E090E0AC0102C0440F29
:1007B000551F6A95E2F7BA016095622361BB0895FF
:1007C000823451F1833420F4813409F07BC007C0B6
:1007D000833409F43EC0843409F074C057C04130FA
:1007E00069F42BB381E090E0AC0102C0440F551FC7
:1007F0006A95E2F7BA01622B6BBB08952BB381E0D7
:1008000090E0AC0102C0440F551F6A95E2F7BA01AF
:10081000609562236BBB0895413069F428B381E091
:1008200090E0AC0102C0440F551F6A95E2F7BA018F
:10083000622B68BB089528B381E090E0AC0102C050
:10084000440F551F6A95E2F7BA016095622368BBB1
:100850000895413069F425B381E090E0AC0102C015
:10086000440F551F6A95E2F7BA01622B65BB0895E4
:1008700025B381E090E0AC0102C0440F551F6A959A
:10088000E2F7BA016095622365BB0895413069F4CF
:1008900022B381E090E0AC0102C0440F551F6A957D
:1008A000E2F7BA01622B62BB089522B381E090E0C7
:1008B000AC0102C0440F551F6A95E2F7BA0160957A
:1008C000622362BB08958234F1F0833420F48134D2
:1008D00009F04FC006C0833441F1843409F049C0A7
:1008E00036C029B381E090E0062E02C0880F991F20
:1008F0000A94E2F730E08223932302C0959587950E
:100900006A95E2F7089526B381E090E0062E02C0D2
:10091000880F991F0A94E2F730E08223932302C0E4
:10092000959587956A95E2F7089523B381E090E065
:10093000062E02C0880F991F0A94E2F730E0822346
:10094000932302C0959587956A95E2F7089520B3A1
:1009500081E090E0062E02C0880F991F0A94E2F70A
:1009600030E08223932302C0959587956A95E2F73C
:10097000089580E008958234B9F0833418F4813406
:10098000C9F505C08334E9F08434A1F527C02BB341
:1009900081E090E0AC0102C0440F551F6A95E2F778
:1009A000BA0162276BBB089528B381E090E0AC01E7
:1009B00002C0440F551F6A95E2F7BA01622768BB6F
:1009C000089525B381E090E0AC0102C0440F551FAB
:1009D0006A95E2F7BA01622765BB089522B381E008
:1009E00090E0AC0102C0440F551F6A95E2F7BA01CE
:1009F000622762BB0895823461F0833418F4813435
:100A000069F405C0833439F0843441F406C06ABB0C
:100A1000089567BB089564BB089561BB089582344F
:100A200061F0833418F4813469F405C0833439F0FB
:100A3000843441F406C06BBB089568BB089565BB60
:100A4000089562BB0895823461F0833418F48134D0
:100A500071F405C0833439F0843449F406C089B395
:100A6000089586B3089583B3089580B3089580E010
:100A70000895823451F1833420F4813409F07BC02D
:100A800007C0833409F43EC0843409F074C057C0F1
:100A9000413069F42BB381E090E0AC0102C0440F17
:100AA000551F6A95E2F7BA01622B6BBB08952BB311
:100AB00081E090E0AC0102C0440F551F6A95E2F757
:100AC000BA01609562236BBB0895413069F428B385
:100AD00081E090E0AC0102C0440F551F6A95E2F737
:100AE000BA01622B68BB089528B381E090E0AC01A5
:100AF00002C0440F551F6A95E2F7BA016095622360
:100B000068BB0895413069F425B381E090E0AC0101
:100B100002C0440F551F6A95E2F7BA01622B65BB0C
:100B2000089525B381E090E0AC0102C0440F551F49
:100B30006A95E2F7BA016095622365BB089541307A
:100B400069F422B381E090E0AC0102C0440F551F6C
:100B50006A95E2F7BA01622B62BB089522B381E085
:100B600090E0AC0102C0440F551F6A95E2F7BA014C
:100B70006095622362BB08956F70823481F0833484
:100B800018F48134F1F405C0833479F08434C9F465
:100B900012C08BB3807F8BBB8BB3862B8BBB88B390
:100BA000807F88BB88B3862B88BB85B3807F85BB5D
:100BB00085B3862B85BB82B3807F82BB82B3682BD3
:100BC00062BB08956295607F823481F0833418F4AB
:100BD0008134F1F405C0833479F08434C9F412C04F
:100BE0008BB38F708BBB8BB3862B8BBB88B38F7013
:100BF00088BB88B3862B88BB85B38F7085BB85B3D4
:100C0000862B85BB82B38F7082BB82B3682B62BB9D
:100C100008958EBB9FBB6DBBE29AE19AE199FECF2E
:100C200008958EBB9FBBE09A8DB308950E94490042
:0A0C30000E94E501FDCFF894FFCF0C
:100C3A0053657420506173733A00456E746572206F
:100C4A00506173733A00436F727265637420506126
:100C5A007373005468652053616665204F70656E32
:100C6A0065640057726F6E67205061737300547227
:100C7A00696573206C6566743A005468652053612F
:100C8A00666520436C6F7365640002FF3738392F3D
:0C0C9A003435362A3132332D41303D2BE9
:00000001FF
